:020000040800F2
:100000008004002049010008DF1700088F11000854
:10001000DD170008C5010008011A000800000000F3
:10002000000000000000000000000000CD180008E3
:10003000C701000800000000E11700089D19000832
:100040006301000863010008630100086301000800
:1000500063010008630100086301000863010008F0
:1000600063010008630100086301000863010008E0
:1000700063010008630100086301000863010008D0
:1000800063010008630100086301000863010008C0
:1000900063010008630100086301000863010008B0
:1000A00063010008630100086301000863010008A0
:1000B0006301000863010008630100086301000890
:1000C0006301000863010008630100086301000880
:1000D0006301000863010008630100086301000870
:1000E0006301000863010008630100086301000860
:1000F0006301000863010008630100086301000850
:10010000630100086301000863010008630100083F
:10011000630100086301000863010008630100082F
:10012000630100086301000863010008630100081F
:10013000DFF810D000F034F800480047411A0008FA
:10014000AFF300808004002006488047064800473F
:10015000FEE7FEE7FEE7FEE7FEE7FEE7FEE7FEE777
:10016000FEE7FEE7FF19000831010008D2B201E006
:1001700000F8012B491EFBD270470022F6E710B5AC
:1001800013460A4604461946FFF7F0FF204610BD05
:10019000421C10F8011B0029FBD1801A7047000097
:1001A000064C074D06E0E06840F0010394E80700C4
:1001B00098471034AC42F6D3FFF7BEFFF431000885
:1001C00014320008FEE770472DE9FE4380464FF6E3
:1001D000FF75284600F0DCFF164C1F260096002114
:1001E00022881423084601F00DF8009663882288BF
:1001F000A3F1140081B2002001F004F80E4801269A
:1002000010270580CDF80080CDE901761F232A460E
:100210000221002000F048FA08A0CDE9000702966C
:1002200060881F23123881B22A46002000F03CFA71
:10023000BDE8FE836C00002010000020687474701C
:100240003A2F2F7777772E6C636477696B692E630B
:100250006F6D00002DE9FE4325A0FFF7B5FF1025C7
:1002600028A0CDE9000500244FF6E07843464FF47E
:1002700078421E2102940A2001F02AFB0C2726A0B6
:10028000CDE90007012643461F222D2102960A20B0
:1002900001F01EFB2BA0CDE9000743461F223C21A5
:1002A00002940A2001F014FB2EA0CDE9000543467C
:1002B0001F22502102940A2001F00AFB34A08DE88D
:1002C000610043461F2264210A2001F001FB3BA08C
:1002D000CDE9000543461F22782102940A2001F04F
:1002E000F7FABDE8FE434FF4966000F0FFB9000056
:1002F000B2E2CAD4353AD3A2CEC4CFD4CABEB2E297
:10030000CAD4000048656C6C6F20576F726C642112
:100310002121212100000000365831323A41424368
:100320004445464748494A4B4C4D4E4F5051525315
:100330005455565758595A30313233343536373888
:1003400039000000365831323A7E21402324255EA0
:10035000262A28295F2B7B7D3A3C3E3F2F7C2D2B84
:100360002E000000385831363A6162636465666772
:1003700068696A6B6C6D6E6F707172737475767785
:1003800078797A30313233343536373839000000F5
:10039000385831363A4142434445464748494A4B2A
:1003A0004C4D4E4F505152535455565758595A3040
:1003B0003132333435363738390000003858313669
:1003C0003A7E21402324255E262A28295F2B7B7D27
:1003D0003A3C3E3F2F7C2D2B2E00000072B6FEE7EC
:1003E0002DE9FF4F83B004463E20CDE90040DDF803
:1003F00044B000274FF080093148109A07EB0711ED
:1004000010F811301278934240D100EB410A109855
:100410009AF801104078814238D1049804990F303D
:1004200083B204F10F0082B2204601F053F8002697
:1004300000250AEB060800BFBBF1000F13D02149CD
:100440000598088098F8021029FA05F0014203D0B7
:100450002046049900F0CAFE641C0098A4B2201A39
:10046000102826D00AE098F8021029FA05F0014277
:1004700001D0059800E0069801F03CF96D1CEDB242
:10048000082DD9D3761CF6B2202ED1D37F1C01982B
:10049000BFB28742B0D30C484188008807B0491EDC
:1004A000BDE8F04F401E8BB282B20021084601F039
:1004B00011B80498009C401C80B20490E2E7000050
:1004C000A8250008100000206C0000202DE9FF4F37
:1004D00083B004460720CDE90040DDF844B0002792
:1004E0004FF0800907EB870000EB47113048109A66
:1004F00010F811301278934240D100EB410A109865
:100500009AF801104078814238D104980499173044
:1005100083B204F1170082B2204600F0DBFF002610
:1005200000250AEB060800BFBBF1000F13D02149DC
:100530000598088098F8021029FA05F0014203D0C6
:100540002046049900F052FE641C0098A4B2201AC0
:10055000182826D00AE098F8021029FA05F001427E
:1005600001D0059800E0069801F0C4F86D1CEDB2CA
:10057000082DD9D3761CF6B2482ED1D37F1C019812
:10058000BFB28742AED30C484188008807B0491EED
:10059000BDE8F04F401E8BB282B20021084600F049
:1005A00099BF0498009C401C80B20490E2E70000D0
:1005B000E42D0008100000206C0000202DE9FF4F02
:1005C00083B004460420CDE90040DDF844B00027A4
:1005D0004FF080093148109A07EB871110F811305D
:1005E0001278934240D100EB410A10989AF801101A
:1005F0004078814238D1049804991F3083B204F1C5
:100600001F0082B2204600F065FF002600250AEB9D
:10061000060800BFBBF1000F13D0214905980880E0
:1006200098F8021029FA05F0014203D020460499F7
:1006300000F0DCFD641C0098A4B2201A202826D00B
:100640000AE098F8021029FA05F0014201D0059855
:1006500000E0069801F04EF86D1CEDB2082DD9D3DC
:10066000761CF6B2802ED1D37F1C0198BFB2874290
:10067000B0D30C484188008807B0491EBDE8F04F50
:10068000401E8BB282B20021084600F023BF0498BE
:10069000009C401C80B20490E2E70000EA2F0008B2
:1006A000100000206C0000202DE9FE431F46DDE90C
:1006B0000A469046894620460C9DFFF769FD0A4987
:1006C00080B240420988CDE9004601EBC00000EB52
:1006D000D070C0F34F003B4642464946029501F0B8
:1006E000F7F8BDE8FE8300006C00002070B50446FA
:1006F00000F010F90546601C02D00448007804445C
:1007000000F008F9401BA042FAD370BD00000020A1
:100710002DE9F84FDFF8C891002409F1040A0AF125
:10072000040B23460F270BF1040ED1E00125A54051
:1007300006EA0502AA4276D1DFF8A8C14E68A6EB08
:100740000C0866452BD00DDC032E34D005DC36B307
:10075000012E19D0022E2FD11BE0112E16D0122EF1
:100760002AD119E0B8F5881F19D006DCB8F5803F0A
:1007700015D0B8F5801F1FD111E0B8F5001F0ED0BD
:10078000B8F5041F18D10AE0CB6815E0CB681B1D33
:1007900012E0CB6808330FE0CB680C330CE08B68B9
:1007A0002BB1012B4FF0080303D0456104E0042373
:1007B00002E0056100E00023FF2A01D8064601E0BF
:1007C00000F104064FEA840501D9A5F12005D6F809
:1007D000008007FA05FC28EA0C0803FA05F548EA48
:1007E0000508C6F800804D68ED0070D53E4DAE6935
:1007F00046F00106AE61AD6924F0030605F001057F
:1008000000953A4D06EB050CDCF80850A607360FAC
:1008100007FA06F825EA0805DFF8D480404503D139
:100820004FF0000825E052E0DFF8C880404502D1D3
:100830004FF001081DE0DFF8C080404502D14FF0C5
:10084000020816E0DFF8B480404502D14FF00308FB
:100850000FE0DFF8AC80404502D14FF0040808E01B
:10086000DFF8A080404502D14FF0050801E04FF0CD
:10087000060808FA06F848EA0508CCF808804D682A
:10088000D9F80060ED034D4601D5164300E09643CC
:100890002E604D68DAF80060AD03554601D5164369
:1008A00000E096432E604D68DBF80060ED025D4687
:1008B00001D5164300E096432E604D68DEF80060D7
:1008C000AD02754601D5164300E096432E60641CC8
:1008D0000A681646E2407FF429AFBDE8F88F0000B1
:1008E000000401400000111000100240000001400F
:1008F00000080140000C01400010014000140140BC
:1009000000180140001C01400AB101617047090450
:10091000FBE70000014880687047000000000020ED
:10092000024881680278114481607047000000200D
:10093000074810B5016841F010010160032000F084
:1009400067F8002000F006F800F024F8002010BD41
:100950000020024070B50D4D04464FF47A7128789E
:10096000B1FBF0F00A490968B1FBF0F000F0FBFBC5
:1009700048B9102C07D200222146501E00F028F85A
:1009800000206C6070BD012070BD000000000020E0
:100990000C0000200C4808B5816941F0010181611B
:1009A000816901F001010091C16941F08051C1618B
:1009B000C06900F0805000900448416821F0E06177
:1009C00041F00071416008BD00100240000001408C
:1009D000F0B40E4B1B680C46C3F30223C3F10705AA
:1009E000042D00D90425191D072901D2002300E098
:1009F000DB1E012606FA05F1491E214099409E4062
:100A0000761E16403143F0BC00F0FBBF0CED00E059
:100A1000064900F0070208684FF6FF03184040EA55
:100A20000220034A10430860704700000CED00E00C
:100A30000000FA052DE9F0470F46050061D0434E4E
:100A4000306800F00700B84209D2306820F0070093
:100A500038433060306800F00700B84251D1286850
:100A60003B4C810712D5400703D5606840F4E06035
:100A700060602878000703D5606840F460506060CB
:100A80006068A96820F0F000084360602878C0071B
:100A900028D06868012810D02168022810D0890762
:100AA00000292EDA616821F0030101436160FFF73C
:100AB00031FF804641F288390DE021688903EFE774
:100AC0008901EDE7FFF726FFA0EB0801494502D9B0
:100AD0000320BDE8F0876068696800F00C00B0EBA7
:100AE000810FEFD1306800F00700B8420BD93068B1
:100AF00020F0070038433060306800F00700B8424B
:100B000001D00120E5E72878400705D56068E9684D
:100B100020F4E060084360602878000706D560682C
:100B2000296920F4605040EAC100606000F018F8C4
:100B30006168084AC1F30311515CC8400649086066
:100B400006480068FFF706FF0020C2E700200240C9
:100B500000100240341B00080C000020040000209C
:100B600012A185B00FC98DE80F0014A0144A0068C7
:100B700004905168134801F00C03042B10D0082B8B
:100B80000ED1C1F38343C9031DF803000AD5516890
:100B900004AAC1F34041515C0A4A5043B0FBF1F052
:100BA00005B0704708494843FAE70000020304050E
:100BB000060708090A0B0C0D0E0F101001020000A9
:100BC0000010024000127A0000093D002DE9F84FA4
:100BD000040070D02078C04DC00749D06868C0F3C9
:100BE0008100012807D06868C0F38100022809D17C
:100BF0006868C00306D52868800339D56068002876
:100C0000E7D035E06068B0F5803F0BD010B1B0F5AB
:100C1000A02F11D0286820F480302860286820F4A4
:100C2000802002E0286840F480302860606890B13D
:100C3000FFF770FE06460AE0286840F4802028602E
:100C4000F0E700BFFFF766FE801B642873D82868B2
:100C50008003F7D50CE0FFF75DFE064605E000BF18
:100C6000FFF758FE801B6428F0D828688003F7D46B
:100C700020789A4E80074FF001094FF0000839D5CF
:100C8000686810F00C0F07D06868C0F38100022874
:100C900009D16868C00306D42868800714D5206984
:100CA000012808D110E02069B0B1C6F80090FFF724
:100CB00031FE074605E00AE1FFF72CFEC01B0228C3
:100CC000C4D828688007F7D52868616920F0F80043
:100CD00040EAC10028600DE0C6F80080FFF71AFE68
:100CE000074604E0FFF716FEC01B022823D8286839
:100CF0008007F7D4207800072CD57948A169D9B1AD
:100D0000C0F80090FFF706FE074604E0FFF702FE7A
:100D1000C01B02280FD8686A8007F7D571484FF4C6
:100D2000FA510068B0FBF1F0009000BF0098411E3E
:100D30000091FAD20EE080E0C0F80080FFF7EAFDF3
:100D4000074604E0FFF7E6FDC01B022875D8686A75
:100D50008007F7D42078400760D5E8690027C000F5
:100D600008D4E86940F08050E861E869012700F0A4
:100D7000805000905C480168C90513D4016883461F
:100D800041F480710160FFF7C5FD824606E000BFB7
:100D9000FFF7C0FDA0EB0A0064284ED8DBF8000086
:100DA000C005F5D5E06801280AD008B1052813D0A0
:100DB000286A20F001002862286A20F0040002E07E
:100DC000286A40F001002862E06841F2883B98B14F
:100DD000FFF7A0FD82460BE0286A40F0040028627D
:100DE000EEE700BFFFF796FDA0EB0A0159455AD880
:100DF000286A8007F6D50CE0FFF78CFD824605E0F7
:100E0000FFF788FDA0EB0A0159454CD8286A8007F6
:100E1000F6D41FB1E86920F08050E861E06988B33A
:100E20006968C1F38101022944D00228C6F86080B4
:100E300004D0FFF76FFD044638E034E0FFF76AFDA9
:100E4000074604E0FFF766FDC01B02282BD8286880
:100E50008001F7D4206AB0F5803F05D16868A168A9
:100E600020F4003008436860D4E908010843696849
:100E700021F4741108436860C6F86090FFF74AFDDA
:100E8000044606E025E000BFFFF744FD001B0228F2
:100E900009D828688001F7D51BE000BFFFF73AFDAD
:100EA000001B022802D90320BDE8F88F28688001C2
:100EB000F4D40EE00128F7D06868226A00F480318B
:100EC000914204D1616A00F47010884201D001207F
:100ED000EAE70020E8E7000000100240000042427C
:100EE000800442420C0000200070004070B50400F5
:100EF00009D0606A002540B125616561A56294F85A
:100F0000510040B10CE0012070BD6068B0F5827FF7
:100F1000F4D0E561F2E784F85050204600F040F844
:100F2000022084F851002068016821F0400101602E
:100F3000A088218900F4827001F404410843A1894A
:100F400001F400610843217C01F002010843217D86
:100F500001F001010843218B01F400710843217F56
:100F600001F03801084394F8201001F08001084393
:100F7000218D01F40051084321680860A069042113
:100F800001EA1040216848602068C16921F40061CD
:100F9000C1616565012084F85100002070BD00002A
:100FA00000B585B000210091019102910391006884
:100FB000104988421BD11048C16941F48041C16188
:100FC000C16901F480410491816941F008018161A6
:100FD0008069694600F0080004904FF420400090BA
:100FE00002200190032003900448FFF791FB05B015
:100FF00000BD00000038004000100240000C01401D
:101000002DE9F84F044690F8500000271D4616467B
:10101000894601280DD04FF0010B84F850B0FFF73E
:1010200079FC804694F85100BA46012804D0022782
:1010300093E00220BDE8F88FB9F1000F73D0002EC5
:1010400071D0032084F85100C4F854A0C4F8309043
:10105000A686E686C4F838A0A4F83CA0A4F83EA072
:10106000C4F844A0C4F840A0A068B0F5004F09D16E
:101070002068016821F0400101602068016841F4A6
:101080008041016020680168490603D4016841F08D
:1010900040010160E068B0F5006F606803D030B3D4
:1010A000012E24D041E008B1012E1CD1206B216813
:1010B0000088C86006E020688168890709D5216B2F
:1010C0000988C160206B801C2063E08E401EE08692
:1010D00009E0FFF71FFCA0EB0800A84202D3681C40
:1010E00001D031E07DB3E08E0028E4D120E0206B18
:1010F00021680078087306E020688168890709D5AF
:10110000216B09780173206B401C2063E08E401E28
:10111000E0860AE0FFF7FEFBA0EB0800A84203D33D
:10112000681C02D010E017E06DB1E08E0028E3D11A
:1011300042462946204600F054FB08B12020606555
:10114000A06818B106E0FFE7032706E02068C16841
:1011500080680090606D00B1012784F851B084F878
:1011600050A0384666E710B5401EB0F1807F01D32D
:10117000012010BD4FF0E02460610F21601700F0E6
:1011800040FC0020A06107202061002010BDFEE788
:101190002DE9F047134C814600216088401E83B240
:1011A0002088401E82B2084600F094F90E484FF4A1
:1011B00000670760A0F104080115C8F800100026B8
:1011C00009E0002503E0484600F094FA6D1C2088F1
:1011D000A842F8D8761C6088B042F2D8C8F80070EF
:1011E000BDE8F0876C000020140C014010B500F041
:1011F0006DF903480088BDE8104000F07BBA00009C
:10120000100000202DE9F041141A641CA6B25C1AEB
:10121000641CA7B2DDF8188000F05CF900250AE034
:10122000002404E0404600F065FA641CA4B2B44215
:10123000F8D36D1CADB2BD42F2D306484188008898
:10124000491EBDE8F041401E8BB282B20021084623
:1012500000F040B96C00002010B500F025F9CF2057
:1012600000F0FEF9002000F0E7F9D92000F0E4F9E1
:10127000302000F0E1F9ED2000F0F2F9642000F0F8
:10128000DBF9032000F0D8F9122000F0D5F9812015
:1012900000F0D2F9E82000F0E3F9852000F0CCF965
:1012A000102000F0C9F97A2000F0C6F9CB2000F038
:1012B000D7F9392000F0C0F92C2000F0BDF900204A
:1012C00000F0BAF9342000F0B7F9022000F0B4F9C8
:1012D000F72000F0C5F9202000F0AEF9EA2000F078
:1012E000BFF9002000F0A8F9002000F0A5F9C02007
:1012F00000F0B6F91B2000F09FF9C12000F0B0F912
:10130000122000F099F9C52000F0AAF9262000F07B
:1013100093F9262000F090F9C72000F0A1F9B02041
:1013200000F08AF9362000F09BF9082000F084F9DB
:101330003A2000F095F9552000F07EF9B12000F038
:101340008FF9002000F078F91A2000F075F9B62026
:1013500000F086F90A2000F06FF9A22000F06CF985
:10136000F22000F07DF9002000F066F9262000F060
:1013700077F9012000F060F9E02000F071F91F20FA
:1013800000F05AF9242000F057F9242000F054F915
:101390000D2000F051F9122000F04EF9092000F064
:1013A0004BF9522000F048F9B72000F045F93F20F2
:1013B00000F042F90C2000F03FF9152000F03CF954
:1013C000062000F039F90E2000F036F9082000F070
:1013D00033F9002000F030F9E12000F041F900205D
:1013E00000F02AF91B2000F027F91B2000F024F957
:1013F000022000F021F90E2000F01EF9062000F076
:101400001BF92E2000F018F9482000F015F93F20B4
:1014100000F012F9032000F00FF90A2000F00CF997
:10142000092000F009F9312000F006F9372000F01A
:1014300003F91F2000F000F92B2000F011F9002023
:1014400000F0FAF8002000F0F7F8012000F0F4F8BE
:101450003F2000F0F1F82A2000F002F9002000F00F
:10146000EBF8002000F0E8F8002000F0E5F8EF20AD
:1014700000F0E2F8112000F0F3F87820FFF736F9D9
:10148000292000F0EDF8002000F00EF901225102B1
:101490000448FFF739FABDE810404FF6FF70FFF738
:1014A00077BE0000000C014010B507484FF480548F
:1014B00004606420FFF71AF90348001F0460BDE8C8
:1014C00010403220FFF712B9140C01400B460246BF
:1014D000AFF300802DE9F041DFF8508007461C464D
:1014E00015460E4698F80A0000F0BAF8380A00F0DF
:1014F000A3F8F8B200F0A0F8280A00F09DF8E8B2CE
:1015000000F09AF898F80C0000F0AAF8300A00F001
:1015100093F8F0B200F090F8200A00F08DF8E0B2F5
:1015200000F08AF8BDE8F04100F0AEB86C00002091
:101530002DE9FF4F81B08A460EA9DFF8EC9091E8C3
:101540003100203800F0FF080AEB0400401E83B28F
:101550000198B9F800B000EB5400401E82B2514629
:101560000198FFF7B7FF002D4FF0000549D12F4834
:1015700008EB480100EB810A00F2744000EB081808
:1015800017E00C2C03D018F8057000260CE01AF8B0
:101590000570FAE7F80701D0039800E0049800F01E
:1015A000A9F87F08761CF6B2B6EB540FF2D36D1C87
:1015B000EDB2A542E5D326E00C2C08D01C4901EB86
:1015C00008100026475D0AEB0500009014E017485C
:1015D00008EB480100EB8100F3E70398A9F800004D
:1015E000F80706D0009881B20198304480B2FFF726
:1015F000FDFD7F08761CF6B2B6EB540FEDD36D1CE3
:10160000EDB2A542D8D30B48A9F800B041880088B4
:1016100005B0491EBDE8F04F401E8BB282B20021DA
:101620000846FFF757BF000010000020441B0008C9
:10163000B81F00086C00002070B507494FF4006423
:101640000C60054D09152D1F29600146034800F067
:1016500035F92C6070BD0000140C0140140000200E
:1016600010B5074A4FF4006414601115116001466B
:10167000044800F023F90248001F046010BD000078
:10168000140C0140140000200148007AFFF7E8BF65
:101690006C00002010B50C46FFF7E2FFE0B2BDE899
:1016A0001040FFF7C9BF000011492A224FF4A07370
:1016B0004A812B228A812C220A81F02258B10128EA
:1016C0000DD002280FD0032811D10B804A80A82109
:1016D0003620FFF7DFBF0A804B800821F8E70B8038
:1016E0004A806821F4E70A804B80C821F0E7704700
:1016F0006C00002070B5044608484FF40065056092
:10170000064E0015361F3060210A054800F0D6F855
:10171000E1B2034800F0D2F8356070BD140C01400E
:101720001400002070B586B000241848009401947D
:1017300002940394816941F020018161816901F083
:1017400020010491816941F008018161816901F002
:1017500008010491816941F00401816180690C4EA6
:1017600000F004004FF4F055049000222946304662
:10177000FFF7CAF801200095CDE90104022003908B
:1017800069463046FEF7C4FF06B070BD0010024047
:10179000000C0140104810B50E4901604FF48271F1
:1017A0004160002102228160C0E9031201224261EE
:1017B0005202C0E906210162416281620A21C162CE
:1017C000FFF794FB002803D0BDE81040FEF706BEEB
:1017D00010BD00000038004014000020FEE7FEE7C6
:1017E000704738B50B46009204460022802100F075
:1017F00009F8002804D0606D40F0200060650320E7
:1018000038BD00002DE9F8431E469146884604463F
:10181000089DFFF77FF8401B351AFFF77BF8074656
:1018200025480068C0F3CB30684338E0701C37D0DF
:10183000FFF770F8C01BA84203D215B1009860B33F
:101840002CE02068416821F0E00141606068B0F55B
:10185000827F0BD1A068B0F5004F02D0B0F5806F49
:1018600004D12068016821F040010160A06AB0F550
:10187000005F09D12068016821F4005101602068EF
:10188000016841F400510160012084F851000020FA
:1018900084F850000320BDE8F8830025401E009026
:1018A0002068816838EA010004D000214945BDD193
:1018B0000020F0E70121F9E70C00002013B54FF4F8
:1018C0007A73012201A9FFF79BFB1CBD7047000042
:1018D0002DE9FF4F83B0884610A9044691E86004C3
:1018E000814628782C4F9B46002852D03888A0EBA0
:1018F0005601A1424DDB79888A1B424549DB297894
:10190000802915D9801BA04243DB424541DB202EB4
:1019100033D0CDE9005A059A182E5B464146204641
:1019200034D0FEF75DFDA01984B215F8020FDBE795
:101930000D290DD0102E12D910228DE806045B4619
:1019400041462046059AFFF7F3FD0834A4B211E0A2
:1019500008EB06001FFA80F84C466D1C0AE08DE883
:1019600042045B4641462046059AFFF7E1FD04EB41
:10197000560084B215F8010FB6E7CDE9005A5B4670
:1019800041462046059AFEF719FECCE7FEF79EFD7C
:10199000C9E707B0BDE8F08F6C000020FEF7C0BFBC
:1019A00030B58FB028216846FEF7E7FB14210AA85E
:1019B000FEF7E3FB01210804CDE9001000240294A6
:1019C00002250491CDE907504FF4E01009906846D4
:1019D000FFF7FCF808B172B6FEE70F20CDE90A0563
:1019E0004FF48060CDE90C4002210AA80E94FFF765
:1019F00021F8002801D072B6FEE70FB030BD704765
:101A0000FEE70907090E002804DB00F1E02080F85A
:101A10000014704700F00F0000F1E02080F8141D62
:101A2000704702E008C8121F08C1002AFAD17047A7
:101A30007047002001E001C1121F002AFBD170474E
:101A4000FEF776FFFFF7ACFFFFF76CFEFFF7A2FE95
:101A5000FFF702FC4FF47A7400F006F8FEF7FAFB89
:101A60002046FEF743FEF7E7FEB51CA0FEF7ACFBF1
:101A7000102520A0CDE900051F230124DE023246F7
:101A80001E2102940020FEF70FFE16A0CDE90005EE
:101A90001F2332463C2102940020FEF705FE18A0C9
:101AA000CDE900051F234FF4FC625A210294002067
:101AB000FEF7FAFD18A0CDE900051F231A4678218C
:101AC00002940020FEF7F0FD40F2DC542046FEF7C1
:101AD0000DFE2046BDE8FE40FEF708BEC8ABB6AF1F
:101AE000B5E7D7D3D7DBBACFB2E2CAD4B3CCD0F202
:101AF00000000000C8ABB6AFB5E7D7D300000000C8
:101B0000332E322220494C4939333431203234309B
:101B100058333230000000007869616F46656E67A7
:101B20004051447465636820323031382D30382D8F
:101B30003230000000000000000000000102030439
:101B40000607080900000000000000000000000077
:101B500000000404040404040004000000140A0A41
:101B60000000000000000000000014143F140A3FB1
:101B70000A0A000000041E1505060C14150F0400C7
:101B8000000012150D0A142C2A1200000000040A8D
:101B90000A1E1515093600000002020100000000AF
:101BA00000000000002010080808080808102000A5
:101BB00000020408080808080804020000000004E5
:101BC000150E0E150400000000000404041F040498
:101BD00004000000000000000000000000020201FC
:101BE00000000000001F00000000000000000000D6
:101BF00000000000000200000010080808040402B1
:101C00000202010000000E1111111111110E00004D
:101C10000000040604040404040E000000000E1179
:101C200011080402011F000000000E11100C10101A
:101C3000110E00000000080C0A0A091E0818000016
:101C400000001F01010F1010110E000000000E090E
:101C5000010F1111110E000000001F0908040404F7
:101C60000404000000000E11110E1111110E0000ED
:101C700000000E1111111E10120E000000000000D5
:101C80000400000000040000000000000004000048
:101C900000040400002010080402040810200000C2
:101CA000000000001F00001F0000000000020408E8
:101CB000102010080402000000000E111108040496
:101CC0000004000000000E111915151D011E000072
:101CD000000004040C0A0A1E1233000000000F1258
:101CE000120E1212120F000000001E11010101015C
:101CF000110E000000000F1212121212120F00003B
:101D000000001F120A0E0A02121F000000001F121C
:101D10000A0E0A020207000000001C12010139111C
:101D2000120C000000003312121E121212330000B7
:101D300000001F0404040404041F000000003E0807
:101D40000808080808090700000037120A060A0AEE
:101D5000123700000000070202020202223F0000C8
:101D600000001B1B1B1B15151515000000003B1266
:101D700016161A1A1217000000000E111111111177
:101D8000110E000000000F12120E020202070000E6
:101D900000000E1111111117190E180000000F127A
:101DA000120E0A121237000000001E110106081060
:101DB000110F000000001F1504040404040E0000AD
:101DC0000000331212121212120C00000000331223
:101DD000120A0A0C0404000000001515150E0A0A68
:101DE0000A0A000000001B0A0A04040A0A1B000079
:101DF00000001B0A0A040404040E000000001F096E
:101E000008040402121F0000001C0404040404045B
:101E100004041C0000020202040408080810000068
:101E2000000E08080808080808080E0000040A0048
:101E300000000000000000000000000000000000A2
:101E40000000003F0004000000000000000000004F
:101E500000000000000C121C123C000000000302F5
:101E6000020E1212120E000000000000001C1202EE
:101E7000021C000000001810101C1212123C00007E
:101E800000000000000C121E021C000000003804BC
:101E9000041E0404041E000000000000003C120C9C
:101EA000021E221C00000302020E12121237000052
:101EB0000000040000060404040E000000000800F6
:101EC000000C08080808080700000302023A0A0E7E
:101ED000123700000000070404040404041F00007B
:101EE00000000000000F151515150000000000008F
:101EF000000F12121237000000000000000C121236
:101F0000120C000000000000000F1212120E020757
:101F100000000000001C1212121C1038000000000B
:101F2000001B06020207000000000000001E020C59
:101F3000101E000000000004040E04040418000039
:101F400000000000001B1212123C00000000000004
:101F50000037120A0C040000000000000015150EE6
:101F60000A0A000000000000001B0A040A1B00000F
:101F7000000000000037120A0C04040300000000F7
:101F8000001E0804041E00000018080808040808C1
:101F900008081800080808080808080808080808B9
:101FA00000060404040804040404060002251800C2
:101FB0000000000000000000000000000000000021
:101FC00000000000000000000000000808080808E9
:101FD000080800001818000000486C2412000000D7
:101FE00000000000000000000000002424247F12F4
:101FF00012127F12121200000000081C2A2A0A0C7A
:102000001828282A2A1C0808000000222515151562
:102010002A585454542200000000000C1212120AD4
:1020200076252911916E00000006060403000000C9
:102030000000000000000000004020101008080808
:1020400008080810102040000002040808101010B2
:1020500010101008080402000000000008086B1CA3
:102060001C6B0808000000000000000008080808B9
:102070007F080808080000000000000000000000C1
:10208000000000000606040300000000000000003D
:10209000FE00000000000000000000000000000042
:1020A00000000000060600000000804040202010D4
:1020B00010080804040202000000001824424242F2
:1020C0004242424224180000000000080E0808089E
:1020D00008080808083E00000000003C4242422078
:1020E00020100804427E00000000003C42422018FC
:1020F00020404042221C0000000000203028242400
:1021000022227E20207800000000007E0202021AB7
:1021100026404042221C0000000000382402021A1F
:1021200026424242241800000000007E22221010A5
:1021300008080808080800000000003C4242422449
:1021400018244242423C000000000018244242424F
:1021500064584040241C00000000000000001818D3
:102160000000000018180000000000000000000837
:1021700000000000000808040000004020100804CF
:1021800002040810204000000000000000007F0052
:1021900000007F0000000000000000020408102082
:1021A00040201008040200000000003C424246406B
:1021B00020101000181800000000001C225A55556D
:1021C00055552D42221C0000000000080818141468
:1021D000243C224242E700000000001F2222221E6F
:1021E00022424242221F00000000007C42420101C4
:1021F00001010142221C00000000001F2242424255
:1022000042424242221F00000000003F4212121EC2
:1022100012120242423F00000000003F4212121E12
:1022200012120202020700000000003C22220101FB
:1022300001712122221C0000000000E742424242BC
:102240007E42424242E700000000003E08080808C3
:1022500008080808083E00000000007C101010105C
:10226000101010101010110F0000007722120A0E2B
:102270000A12122222770000000000070202020266
:1022800002020202427F0000000000773636363636
:102290002A2A2A2A2A6B0000000000E346464A4AFE
:1022A00052525262624700000000001C224141412C
:1022B00041414141221C00000000003F4242424295
:1022C0003E020202020700000000001C22414141C0
:1022D00041414D53321C60000000003F4242423EEB
:1022E0001212222242C700000000007C4242020477
:1022F00018204042423E00000000007F49080808C4
:1023000008080808081C0000000000E7424242429A
:1023100042424242423C0000000000E74242222486
:1023200024141418080800000000006B49494949AA
:102330005555362222220000000000E742242418CE
:102340001818242442E70000000000772222141409
:1023500008080808081C00000000007E212010105A
:1023600008040442423F00000078080808080808F2
:102370000808080808087800000002020404080899
:102380000810102020204040001E101010101010C7
:102390001010101010101E00003844000000000043
:1023A000000000000000000000000000000000002D
:1023B00000000000000000FF000608000000000010
:1023C0000000000000000000000000000000003CD1
:1023D0004278444242FC0000000000030202021A5C
:1023E00026424242261A0000000000000000003889
:1023F000440202024438000000000060404040787F
:102400004442424264D80000000000000000003C4A
:10241000427E0202423C0000000000F08808087E74
:1024200008080808083E0000000000000000007CCA
:1024300022221C023C42423C000000030202023AFB
:102440004642424242E700000000000C0C00000E31
:1024500008080808083E000000000030300000387E
:10246000202020202020221E0000000302020272F1
:10247000120A1612227700000000000E0808080851
:1024800008080808083E0000000000000000007F67
:102490009292929292B70000000000000000003B70
:1024A0004642424242E70000000000000000003CBB
:1024B00042424242423C0000000000000000001B7B
:1024C00026424242221E020700000000000000785F
:1024D00044424242447840E000000000000000779F
:1024E0004C040404041F0000000000000000007CF5
:1024F00042023C40423E0000000000000008083E4E
:102500000808080808300000000000000000006310
:102510004242424262DC000000000000000000E78E
:10252000422424140808000000000000000000EB12
:1025300049495555222200000000000000000076A5
:1025400024181818246E000000000000000000E7A6
:102550004224241418080807000000000000007E30
:1025600022100808447E000000C0202020202010F7
:10257000202020202020C00010101010101010105B
:10258000101010101010101000060808080808108D
:1025900008080808080806000C32C2000000000005
:1025A0000000000000000000C9EE000027FC140439
:1025B00014A4811042084040104017FC2040E0E085
:1025C000215022482C4620400040DBDA110411241F
:1025D000112411241124FD24112411241124112467
:1025E00011241D24E124422402040404CAD0020060
:1025F000010000007FFC0100010001003FF82108FC
:102600002108210821082128211001000100C8AB60
:1026100000000000018002400430180860061FF925
:102620000100010001003FF80100010001007FFEF0
:10263000B6AF0000000000203E20007C00220022F7
:102640007F221022102212221222224223423D8295
:10265000009CB5E70000010001001FF0610C41047F
:1026600041047FFC4104410441047FFC010001025C
:10267000010201FCD7D3000000003FF80010006009
:102680000080010000807FFE00400040002000200C
:10269000002018400780BCBC10201020102013FE22
:1026A000FC201020102015FC18843088D0481050D1
:1026B0001020105051882606CAF501000120011093
:1026C00001107FFC038005400540092011102108FE
:1026D00041048102010001000100D3D00200020088
:1026E000FFFE040004000FF0081018102FF048102F
:1026F00088100FF00810081008500820CFDE0000E6
:102700007BF84A08520853F8620852084BF84A44CA
:102710004A486A3052204210428843064200B9AB10
:1027200000800480048008400840102020104208E7
:10273000820604000440082010203FF01010000022
:10274000CBBE00003FF8000800087FE80008000842
:102750001F8810881088108810881F88108800280B
:102760000010BBB600800080FC8004FC0504490812
:102770002A401440104028A024A0451081100208CF
:1027800004040802D3AD00002080133C122402246C
:102790000224F2241224122412B41328122010202E
:1027A000282047FE0000C4FA0900090011FC320489
:1027B00054489950114812441444114010800200AA
:1027C0005104511290120FF0B4BF000000201020ED
:1027D00013FE202026244A247A241224222423FCB7
:1027E0007C20002204227822003CC9AB00000000BB
:1027F00004000FF0102020207FFC208420842084FF
:1028000020843FF82000200220021FFECCEE0000B2
:102810000000204023FE204079FC220423FC2204F7
:1028200023FC220423FC3A0465FA01980204B3E471
:102830000000010001007FFE0220041004080804CB
:102840003FFC044204400440044208421042607EBF
:10285000BED800000000207E3E804880488048FEB0
:1028600048827F8208820C8214FA1284228021809E
:1028700040FED0CE000000007F842208223022C01B
:10288000220222047FC8223022C22202220422080D
:1028900022304040BBAD000000007FFE00000FF082
:1028A00011101110111051125FF2511251125112E8
:1028B0004FF240027FFCD4B2000000007FFE47E2EE
:1028C0004812481247E24FF2501250125112511260
:1028D00042924472580A3FFCCDBC000000003FFE0B
:1028E000440247F24C225362408243625E1A4182A4
:1028F0004062430240C240223FFCC6AC00000040A0
:102900002040204020403FFE2000200020003FE0EB
:10291000201020102010201040104010CFD40000B4
:1029200000003FFC200420043FFC200420041FF88A
:1029300024441448144814480C5004407FFECABE76
:10294000000000003FFC0000000000007FFE00804F
:102950000890088810881084208420824082078094
:10296000B2CB0000002008207FFE002000783F88C6
:102970001108089009207FFE018003400D30310CC2
:102980004002B5A500000010081004203FF8210403
:1029900021043FFC210421043FF801007FFE0100D7
:1029A00001000100D6D000000100010001003FFC41
:1029B0002104210421042104210421043FFC0100FD
:1029C000010001000100D3A20000000008207FFEEA
:1029D0000820092001003FF82108210821081FF4E0
:1029E000014002200C10700ECEC400000100010056
:1029F00000803F7C081008100410042002200240D0
:102A00000180018002601C18E006D7DB0000000096
:102A1000102011FE2202220249FC5800300013FE51
:102A20002528792401240D24722202A2BACF0000A5
:102A30000000018002400430180860061FF8000002
:102A40001FF8200420042004200420041FF8C1C122
:102A50000000010001007FFE00003FF820083FF861
:102A60003FF8400647C24824082008221022603E52
:102A7000B6C80000000000803FFE44105FFC441018
:102A8000441043F040005FF84408423041C04360C6
:102A9000BC1EB2E20000000067C21452055205528B
:102AA000C552255205520552155217522282224212
:102AB0004442483ECAD4000000002014101417FEFF
:102AC00000120010601013F01090109010901492EB
:102AD00014EA1F0A0006B3CC0000000019FE7202BF
:102AE000120212027DFC18001BFE3420502053FEFF
:102AF00010201020102013FED0F2000000000080F3
:102B00003FFE400047FC4208413040C05FFE40426B
:102B100040424044404840404440B5F70000000077
:102B200023FE122202FA0222E22212FE1272128AFC
:102B3000128A128A16BA1A421202040EB9E2000070
:102B40000100010411080908091009207FFE044052
:102B5000044004400440084208421042607CB0E651
:102B60000000000048FE4900490049007EFE418205
:102B70004144794445284528451045284644038268
:102B8000C8A800001000100013FC7D0411041904F3
:102B90001884348850485050102010501088130466
:102BA0001402CBF9000000003F7C204020403E4052
:102BB000227E2244224422443E8420842084408475
:102BC00041044204C6C100003FF8200820083FF835
:102BD000241022202FF8222022203FFC22204220F5
:102BE000442084200820C4BB04407FFC04401FF024
:102BF00010101FF010101FF00400FFFE11103FF81E
:102C0000D116115011200100D0FD2080108010FE3F
:102C10000100FE0021FC20243C2424A024A024BC8C
:102C200024A024A04560553E8A00D7AA2020202059
:102C30002020FDFC4020504093FEFC40108011FC01
:102C40001C04F0885050102010101010BFAA000073
:102C50007FFC08200820082008200820FFFE08200C
:102C60000820082008201020102020204020D4B464
:102C7000000027FE1420144085FC450445FC150483
:102C800015FC2524E42024A829242A2230A0004071
:102C9000D2BA0080204017FE11208120423C4244DD
:102CA000166412942348E2482230222022502288BF
:102CB0000306BEA70FE0082008200FE00820082028
:102CC0000FE000007EFC428442847EFC4284428409
:102CD0007EFC4284CDF800007FFC40044004421496
:102CE00052944A54442444244A544A545294610409
:102CF000400440144008D5BE1020082008207E2043
:102D0000003E04204420442025FC290429040F040B
:102D1000F104410401FC0104B0B410401020102063
:102D200013FEFA02144410401BFE3088D0881108AC
:102D300010D01020105050882304BCFC201020100C
:102D40003B7C211441FE7A14A27C2710F97C2510CB
:102D500025FE22102A10350028FE0000D0A31040C6
:102D60001020102011FEFC00108831043A02548813
:102D70005088905010501020105010881306D7BC67
:102D800001404120212023FE022016201BFC12209E
:102D9000222023FCE2202220222023FE2200020007
:102DA000B4A520202020782049FC91247D2455249E
:102DB00055247DFC552454207C28542457FE45027C
:102DC0008C00C3FE1110111017FC1110FC0013F839
:102DD000120817F81A0833F8D04017FC10A0111089
:102DE00052082406C9EE0000000000001000000890
:102DF00000080C7FFC04401001C8A002186042309B
:102E00001832231812C30014030004030C047FF0CB
:102E1000080F80080B4078136018332018631818C7
:102E2000831C190308180300000300000000DBDA0C
:102E300000000000000004100C04180C04108C04A6
:102E4000108C04108C04108C04D08C3F108C041057
:102E50008C04108C04108C04108C04108C04108CC6
:102E600005F08C0E208C78208C20408C00808C010A
:102E7000000C02000C000000CAD00000000000009E
:102E800000300000180000180800001C1FFFE000C0
:102E9000180000182007FFF0041820041820041858
:102EA00020041820041820041820041820041820D6
:102EB0000418200418E0041840001800001800004E
:102EC0000000D6D00000000000000000000000005C
:102ED0000018000018000018000018003FFFFE3026
:102EE00018063018063018063018063018063FFF4E
:102EF000FE30180600180000180000180000180026
:102F0000001800000000000000000000CEC4000017
:102F100000000000000000003800001C0000060057
:102F2000FFFFFF0600300600300300600300600171
:102F300080C000C18000E300003600001C00007764
:102F40000003C1E01E003C6000070000000000001C
:102F5000000000000000B2E20000000000000000DD
:102F60000000000040000321FF3339833311833315
:102F7000019B33C19B33719B33199B33019B3301FD
:102F80009B33119B3319B333303033306C0330C66D
:102F9000036383032E01BE00000000000000000058
:102FA000CAD4000000000000000000000000400043
:102FB000D83000CE1800C21C00C001FFFF0000C0C6
:102FC000F800C01800C019FFC01818401818601980
:102FD00018601B18611E18311C1FB139F019100040
:102FE0000F000000000000000000D7D60000000025
:102FF00000060000000300000000C0000001C0C087
:10300000000107C00001FF00021FFE0007F01C00C6
:1030100007C070000F00E0000E03F0001C0FF0006E
:103020003C0F70003C00E0001800C0000000C00031
:103030000000C00000006000000020000000370019
:103040000001FF00007FF80007F830001F8030000B
:103050000080300000C03000006060000018E00018
:10306000000FC0000006000000000000CCE50000DA
:10307000000000000000000000C0000000E0002090
:1030800001B800703FF80061FFC000C3030001C633
:103090000600038C060003080C0006080C000E183E
:1030A000183F1E101BF31F903F0700803C1C01902F
:1030B000707C019060FE01A0C3F801A00FD803A0AE
:1030C0000818036000180340001803C000180380AC
:1030D0000018030000180000001800000010000095
:1030E0000030000000300000000000000000B2E2EC
:1030F00000000000000000000000000000000000D0
:10310000020C1008071FF80403BFF00201BC3003D3
:1031100003EC3003015C600300D8600300D8600357
:103120008098620361B8430771B1430631324306A8
:103130003376C3063A64C7063EECC0063E78C00646
:103140003C3040067C70000678E060067BFFF006AD
:10315000F7C00006E400000640000006000000067C
:103160000000007C00008FF000007C0000000000E8
:10317000CAD40000000000000000000000000000B1
:103180003F0000007F8000000180000000C00000C0
:1031900000C0000000CE038000CFFFC000DD4180F2
:1031A0000FFE0007FFFC000C00F000180FC03E19D6
:1031B000FF40F311BC6083307FE003B1FE20033396
:1031C000802003700030036000100360001807C007
:1031D000000C07C00004078000020100000300008B
:1031E00000010000000000000000000000000000DE
:1031F000000000001432000800000020140000004D
:10320000221A000828320008140000206C04000074
:10321000321A000801000000100000000000000049
:083220000024F400000000008E
:0400000508000131BD
:00000001FF
