:020000040800F2
:10000000D80400204901000887180008FF130008E1
:1000100085180008B10400080D1A0008000000004F
:100020000000000000000000000000008B18000825
:10003000B304000800000000891800088D180008AB
:100040006301000863010008630100086301000800
:1000500063010008630100086301000863010008F0
:1000600063010008630100086301000863010008E0
:1000700063010008630100086301000863010008D0
:1000800063010008630100086301000863010008C0
:1000900063010008630100086301000863010008B0
:1000A00063010008630100086301000863010008A0
:1000B0006301000863010008630100086301000890
:1000C0006301000863010008630100086301000880
:1000D0006301000863010008630100086301000870
:1000E0006301000863010008630100086301000860
:1000F0006301000863010008630100086301000850
:10010000630100086301000863010008630100083F
:10011000630100086301000863010008630100082F
:10012000630100086301000863010008630100081F
:10013000DFF810D000F076F900480047A922000847
:10014000AFF30080D80400200648804706480047E7
:10015000FEE7FEE7FEE7FEE7FEE7FEE7FEE7FEE777
:10016000FEE7FEE7EF18000831010008202A04DB53
:10017000203A21FA02F00021704721FA02F3D04020
:10018000C2F120029140084319467047D2B201E003
:1001900000F8012B491EFBD270470022F6E710B58C
:1001A00013460A4604461946FFF7F0FF204610BDE5
:1001B00080EA010210B502F00043400022D04A005C
:1001C0001FD0010E01EB1261C0F35600C2F35602BC
:1001D00040F4000042F40002A0FB022000047F393A
:1001E000140400D0401C50EA124001D44000491EC3
:1001F000C2B20C0604EBD010401C4008802A02D08A
:1002000003E0002010BD20F00100002900DA0020EA
:10021000184310BD70B521F0004303430CD0C1F367
:100220000A550024D5EB040564EB0403D617AD1A78
:10023000B34102DB0020014670BD201841EB0251A2
:1002400070BD0EB5C10F80EAE0700844CA070021F6
:1002500040F233438DE80E000A460B4600F093F857
:1002600003B000BD00F0004220F00040C10DC0F31B
:10027000160040F400007F2901DA0020704796291B
:1002800003DCC1F19601C84001E096398840002A9C
:10029000F4D04042704701F0004330B421F00041F7
:1002A00050EA010206D00A0DA2F56072C1F31301F3
:1002B000002A02DC30BC00207047440F44EAC1042D
:1002C000C100E01830BC00EBC25000F016B830B5E9
:1002D0000B46014600202022012409E021FA02F504
:1002E0009D4205D303FA02F5491B04FA02F528449E
:1002F000151EA2F10102F1DC30BD0029A8BF704734
:10030000401C490008BF20F00100704710B4B0FA4B
:1003100080FC00FA0CF050EA010404BF10BC7047E6
:1003200049B1CCF1200421FA04F411FA0CF118BF00
:10033000012121430843A3EB0C01CB1D4FEA0061CF
:100340004FEA102042BF002010BC704700EBC350A2
:1003500010440029A4BF10BC7047401C490008BFCE
:1003600020F0010010BC704710B5141E73F100049A
:1003700008DA401C41F1000192185B411A4301D197
:1003800020F0010010BD2DE9F04D92469B4611B1C1
:10039000B1FA81F202E0B0FA80F22032904600F029
:1003A00053F804460F4640EA0A0041EA0B0153465F
:1003B0005A46084313D0114653EA010019D0C8F138
:1003C00040025046FFF7D2FE05460E4650465946BB
:1003D000424600F039F8084305D0012004E02046E9
:1003E0003946BDE8F08D0020054346EAE0762C430F
:1003F00037430A986305E40AA0EB08000022FD0ACF
:1004000044EA47540A3002D500200146E9E70105D5
:1004100010196941DDE9084500196941BDE8F04D51
:10042000A2E70000064C074D06E0E06840F001033B
:1004300094E8070098471034AC42F6D3FFF77CFEEF
:1004400094240008B4240008202A04DB203A00FA8F
:1004500002F1002070479140C2F1200320FA03F31B
:1004600019439040704700003EB5FF248DE81C0002
:1004700040000A4601460123034800F0F5F9002830
:1004800001D04FF0FF303EBD400000203EB5FF24BC
:100490008DE81C0040000A4601460123034800F095
:1004A0000BFB002801D04FF0FF303EBD4000002084
:1004B000FEE7704772B6FEE770B5044600F00AF931
:1004C0000546601C02D004480078044400F002F99C
:1004D000401BA042FAD370BD080000202DE9F84F60
:1004E000DFF8C891002409F1040A0AF1040B23463D
:1004F0000F270BF1040ED1E00125A54006EA050205
:10050000AA4276D1DFF8A8C14E68A6EB0C08664572
:100510002BD00DDC032E34D005DC36B3012E19D0E0
:10052000022E2FD11BE0112E16D0122E2AD119E047
:10053000B8F5881F19D006DCB8F5803F15D0B8F59E
:10054000801F1FD111E0B8F5001F0ED0B8F5041FB1
:1005500018D10AE0CB6815E0CB681B1D12E0CB6810
:1005600008330FE0CB680C330CE08B682BB1012B08
:100570004FF0080303D0456104E0042302E0056165
:1005800000E00023FF2A01D8064601E000F104063E
:100590004FEA840501D9A5F12005D6F8008007FAB5
:1005A00005FC28EA0C0803FA05F548EA0508C6F830
:1005B00000804D68ED0070D53E4DAE6946F00106F5
:1005C000AE61AD6924F0030605F0010500953A4DD2
:1005D00006EB050CDCF80850A607360F07FA06F8FC
:1005E00025EA0805DFF8D480404503D14FF0000824
:1005F00025E052E0DFF8C880404502D14FF0010805
:100600001DE0DFF8C080404502D14FF0020816E03F
:10061000DFF8B480404502D14FF003080FE0DFF867
:10062000AC80404502D14FF0040808E0DFF8A0801C
:10063000404502D14FF0050801E04FF0060808FAE6
:1006400006F848EA0508CCF808804D68D9F800603B
:10065000ED034D4601D5164300E096432E604D68EC
:10066000DAF80060AD03554601D5164300E0964325
:100670002E604D68DBF80060ED025D4601D5164343
:1006800000E096432E604D68DEF80060AD027546CE
:1006900001D5164300E096432E60641C0A68164696
:1006A000E2407FF429AFBDE8F88F0000000401406C
:1006B000000011100010024000000140000801403D
:1006C000000C0140001001400014014000180140DE
:1006D000001C0140014880687047000008000020AD
:1006E00070B5040025D094F83D00002520B984F8A9
:1006F0003C50204600F078FA242084F83D00206821
:10070000016821F0010101602068016841F40041A5
:1007100001602068016821F40041016000F0B2FB33
:100720004D4A6168914201D84C4900E04C498842E9
:1007300001D2012070BD4B492368B0FBF1F15E6826
:1007400026F03F060E435E606368934206D94FF47D
:10075000967359434FF47A73B1FBF3F12368491C44
:100760001E6A26F03F06314319626168914210D833
:100770004900401EB0FBF1F2521CC2F30B02042AE6
:1007800001D2042022E0B0FBF1F0401CC0F30B00CA
:100790001CE0A268F2B301EBC10303EB0116431E98
:1007A000B3FBF6F35B1C43F480431B0549D092B3C3
:1007B00001EBC10202EB0111401EB0FBF1F0401C45
:1007C000C0F30B0040F4804040F400402168CA6947
:1007D0004CF6FF739A431043C861D4E907100143F4
:1007E0002068026822F0C00211430160D4E90301CD
:1007F00001432068826848F2FF339A4311438160C5
:10080000D4E9050108432168CA6822F0FF021043B9
:10081000C86001E00EE016E02068016841F00101C7
:1008200001602564202084F83D00256384F83E5053
:10083000002070BD01EB4106431EB3FBF6F35B1CC9
:10084000B3E70120C2E701EB4101401EB0FBF1F02C
:10085000401CC0F30B00B7E7A086010080841E0097
:1008600000093D0040420F002DE9FF4F83B00025F5
:10087000DDE910799A4693460446DDF848800095F4
:10088000FFF728FF064694F83D0020287CD1192365
:10089000012285492046009600F0C2FE0028F5D1CD
:1008A00094F83C0001286FD0012084F83C002068B7
:1008B0000168C90703D1016841F0010101602068A6
:1008C000016821F400610160222084F83D0040208D
:1008D00084F83E0025646762A4F82A90608D208524
:1008E0007248E062CDE9008653465A462046049994
:1008F00000F09EFD00287DD1208DDFF8B4912027E7
:1009000068B1012814D00228206801681ED041F483
:10091000806101602068416980690090B6E02068CC
:10092000416981690091016841F400710160ADE0A5
:100930002068016821F48061016072B62068416915
:1009400081690091016841F400710AE041F400619D
:10095000016072B62068416981690091016821F4E3
:100960008061016062B691E0032868D801280CD04C
:10097000022843464FF000024946204600960FD019
:1009800000F04EFEB0BB10E08BE032464146204600
:1009900000F0C5FE70BB20680069616A08706CE0F9
:1009A00000F03EFE30BB72B634E02068016821F4EE
:1009B0008061016072B620680069616A0870606ACF
:1009C000401C6062208D401E2085608D401E608529
:1009D000384846F2A8110068B0FBF1F0C0EBC00047
:1009E00000EB80000090401E009008D02068406915
:1009F000C04300E029E040070CD50098F3E744F835
:100A0000305F6773A573206940F02000206162B6F3
:100A100025731AE02068016841F4007101602068C4
:100A20000069616A0870606A401C6062218D491E1D
:100A30002185618D491E618562B621681BE03246C1
:100A40004146204600F06BFE18B1012007B0BDE81A
:100A5000F08F20680069616A0870606A401C6062FB
:100A6000218D491E2185618D491E618521684A6954
:100A7000D24352070AD409690170606A401C60625F
:100A8000208D401E2085608D401E6085208D0028B1
:100A90007FF46AAF84F83D7084F83E5084F83C508F
:100AA000D4E70220D2E70000020010000000FFFFA0
:100AB00004000100140000202DE9FF4F83B09A4686
:100AC000DDE9119793460446DDF84080FFF702FE0A
:100AD000054694F83D0020287FD119230122404982
:100AE0002046009500F09CFD002876D194F83C004B
:100AF000012872D0012084F83C0020680168C907F1
:100B000003D1016841F0010101602068016821F40E
:100B100000610160212084F83D00402084F83E00FF
:100B200000262664C4F82480A4F82A90608D2085CD
:100B30002C48E062CDE9007553465A462046049998
:100B400000F0F4FC70B930E02A463946204600F047
:100B500019FE58B1206C042804D12068016841F4C2
:100B600000710160012007B0BDE8F08F606A216864
:100B700000780861606A401C6062218D491E89B25C
:100B80002185628D521E628522685369DB435B07B3
:100B90000BD469B100781061606A401C6062208DDE
:100BA000401E2085608D401E6085208D0028CBD1A1
:100BB0002A463946204600F00DFD0028CAD154F8D7
:100BC0003D0B016841F400710160202004F81E090A
:100BD000E67766770020C6E7FFE70220C3E700005C
:100BE000020010000000FFFF10B586B00021009148
:100BF00001910291039100680F4988421AD10F4C6C
:100C0000A06940F00800A061A069694600F00800F2
:100C10000490C02000901220019003200390084807
:100C2000FFF75CFCE06940F40010E061E06900F46B
:100C30000010049006B010BD0054004000100240A7
:100C4000000C0140024881680278114481607047BD
:100C500008000020074810B5016841F0100101604C
:100C6000032000F067F8002000F006F800F024F8F8
:100C7000002010BD0020024070B50D4D04464FF419
:100C80007A712878B1FBF0F00A490968B1FBF0F0FD
:100C900000F0DEFA48B9102C07D200222146501E7F
:100CA00000F028F800206C6070BD012070BD0000CD
:100CB00008000020140000200C4808B5816941F0AC
:100CC00001018161816901F001010091C16941F077
:100CD0008051C161C06900F08050009004484168B3
:100CE00021F0E06141F00071416008BD0010024058
:100CF00000000140F0B40E4B1B680C46C3F3022306
:100D0000C3F10705042D00D90425191D072901D2B7
:100D1000002300E0DB1E012606FA05F1491E2140F2
:100D200099409E40761E16403143F0BC00F080BED4
:100D30000CED00E0064900F0070208684FF6FF03DB
:100D4000184040EA0220034A104308607047000040
:100D50000CED00E00000FA052DE9F0470F46050014
:100D600061D0434E306800F00700B84209D23068C5
:100D700020F0070038433060306800F00700B842C8
:100D800051D128683B4C810712D5400703D56068D4
:100D900040F4E06060602878000703D5606840F4A4
:100DA000605060606068A96820F0F00008436060EF
:100DB0002878C00728D06868012810D02168022848
:100DC00010D0890700292EDA616821F00301014360
:100DD0006160FFF77FFC804641F288390DE02168B1
:100DE0008903EFE78901EDE7FFF774FCA0EB080149
:100DF000494502D90320BDE8F0876068696800F0C2
:100E00000C00B0EB810FEFD1306800F00700B84262
:100E10000BD9306820F0070038433060306800F0AC
:100E20000700B84201D00120E5E72878400705D542
:100E30006068E96820F4E060084360602878000793
:100E400006D56068296920F4605040EAC1006060FE
:100E500000F038F86168084AC1F30311515CC840DA
:100E60000649086006480068FFF706FF0020C2E751
:100E700000200240001002407C24000814000020E2
:100E80000C0000200448054900684968044AC1F381
:100E90000221515CC840704714000020001002403D
:100EA0008C2400080448054900684968044AC1F3D5
:100EB000C221515CC840704714000020001002405D
:100EC0008C24000812A185B00FC98DE80F0014A072
:100ED000144A006804905168134801F00C03042B75
:100EE00010D0082B0ED1C1F38343C9031DF80300B2
:100EF0000AD5516804AAC1F34041515C0A4A5043E3
:100F0000B0FBF1F005B0704708494843FAE700002C
:100F100002030405060708090A0B0C0D0E0F10103A
:100F2000010200000010024000127A0000093D009A
:100F30002DE9F84F040070D02078C04DC00749D08B
:100F40006868C0F38100012807D06868C0F3810099
:100F5000022809D16868C00306D52868800339D5FE
:100F600060680028E7D035E06068B0F5803F0BD0BE
:100F700010B1B0F5A02F11D0286820F4803028607F
:100F8000286820F4802002E0286840F4803028603F
:100F9000606890B1FFF79EFB06460AE0286840F4BF
:100FA00080202860F0E700BFFFF794FB801B6428D7
:100FB00073D828688003F7D50CE0FFF78BFB064653
:100FC00005E000BFFFF786FB801B6428F0D8286887
:100FD0008003F7D420789A4E80074FF001094FF034
:100FE000000839D5686810F00C0F07D06868C0F3A6
:100FF0008100022809D16868C00306D428688007E8
:1010000014D52069012808D110E02069B0B1C6F8D4
:101010000090FFF75FFB074605E00AE1FFF75AFB88
:10102000C01B0228C4D828688007F7D528686169E2
:1010300020F0F80040EAC10028600DE0C6F800800A
:10104000FFF748FB074604E0FFF744FBC01B0228FC
:1010500023D828688007F7D4207800072CD5794852
:10106000A169D9B1C0F80090FFF734FB074604E04E
:10107000FFF730FBC01B02280FD8686A8007F7D53E
:1010800071484FF4FA510068B0FBF1F0009000BFD6
:101090000098411E0091FAD20EE080E0C0F8008076
:1010A000FFF718FB074604E0FFF714FBC01B0228FC
:1010B00075D8686A8007F7D42078400760D5E8695A
:1010C0000027C00008D4E86940F08050E861E86972
:1010D000012700F0805000905C480168C90513D4D6
:1010E0000168834641F480710160FFF7F3FA82469C
:1010F00006E000BFFFF7EEFAA0EB0A0064284ED826
:10110000DBF80000C005F5D5E06801280AD008B179
:10111000052813D0286A20F001002862286A20F0F0
:10112000040002E0286A40F001002862E06841F211
:10113000883B98B1FFF7CEFA82460BE0286A40F070
:1011400004002862EEE700BFFFF7C4FAA0EB0A0133
:1011500059455AD8286A8007F6D50CE0FFF7BAFA45
:10116000824605E0FFF7B6FAA0EB0A0159454CD8D4
:10117000286A8007F6D41FB1E86920F08050E86142
:10118000E06988B36968C1F38101022944D002286B
:10119000C6F8608004D0FFF79DFA044638E034E0DA
:1011A000FFF798FA074604E0FFF794FAC01B0228FD
:1011B0002BD828688001F7D4206AB0F5803F05D18C
:1011C0006868A16820F4003008436860D4E9080129
:1011D0000843696821F4741108436860C6F8609098
:1011E000FFF778FA044606E025E000BFFFF772FA41
:1011F000001B022809D828688001F7D51BE000BF32
:10120000FFF768FA001B022802D90320BDE8F88F17
:1012100028688001F4D40EE00128F7D06868226ABB
:1012200000F48031914204D1616A00F47010884268
:1012300001D00120EAE70020E8E7000000100240AA
:10124000000042428004424214000020007000402E
:1012500010B5401EB0F1807F01D3012010BD4FF0CA
:10126000E02460610F21601700F0E2FB0020A06124
:1012700007202061002010BD70B5040004D094F850
:101280003900002510B106E0012070BD84F8385007
:10129000204600F023F8242084F839002068C16833
:1012A00021F40051C160204600F022FB2068016952
:1012B00021F4904101612068416921F02A014161D6
:1012C0002068C16841F40051C160E563202084F8C2
:1012D000390084F83A00002070BD000030B585B0B8
:1012E00000240094019402940394006814498842F5
:1012F00024D11448816941F480418161816901F4FC
:1013000080410491816941F00401816180690E4D41
:1013100000F0040004904FF400700090022001904F
:101320000320039069462846FFF7D8F82815CDE931
:101330000004694628460294FFF7D0F805B030BD96
:101340000038014000100240000801402DE9F84338
:10135000044690F839001F4616460D4620284CD109
:10136000C5B1BEB194F83800012846D0012084F8F8
:1013700038004FF00008C4F83C80212084F8390080
:10138000FFF7A8F9A6848146E684A068B0F5805FDF
:1013900003D004E00120BDE8F883206928B12E467F
:1013A0005FF0000584F838800EE00026FAE780211F
:1013B000204600F0F9FAA0B9AEB116F8010B216889
:1013C0004860E08C401EE084E08C4B464FF0000209
:1013D00000970028EBD14FF04001204600F0E4FADE
:1013E00030B10320D7E735F8020BC0F30800E6E779
:1013F000202084F839000020CDE70220CBE7FEE76B
:1014000001684A69D24352050FD46FF480624A6181
:10141000002140F8301F202242738173026942F09C
:101420000402026101730120704700207047000030
:101430002DE9F84F0446006889460B9D01689846DF
:10144000174641F4806101602068016841F48071B1
:10145000016000954FF0011B0022594620460A9B6F
:1014600000F0DEF84FF4007A40B120680068C00553
:1014700001D5C4F840A00320BDE8F88F216809F029
:10148000FE0008612B46284920460A9A00F0FCF825
:10149000F0BB20684169806900902A4620460A997D
:1014A00000F070F940B1206C04283AD1206801683E
:1014B00041F40071016034E0FEB2B8F1010F09D0CF
:1014C0002168380A08612A4620460A9900F05AF92C
:1014D0000028E8D1206806612A4620460A9900F0D3
:1014E00051F90028DFD12068016841F48071016062
:1014F00000950022594620460A9B00F091F80028EA
:10150000B3D1216809F0FF0040F00100086100E05C
:1015100007E02B46044920460A9A00F0B5F8002857
:10152000AAD00120A8E70000020001002DE9F8433D
:10153000044600680D46DDE908970168984616469E
:1015400041F4807101604B4600224FF001112046AA
:10155000009700F065F848B120680068C00502D522
:101560004FF4007020640320BDE8F883216805F083
:10157000FE0008613B464A461549204600F084F8C3
:1015800088B920684169806900903A4649462046FA
:1015900000F0F8F848B1206C042804D120680168F4
:1015A00041F4007101600120DEE7F5B2B8F1010FEE
:1015B00009D02168300A08613A464946204600F0C1
:1015C000E1F80028E7D1206805610020CCE70000A1
:1015D0000200010070B516460D4604460DE0204697
:1015E000FFF70EFF08B1012070BD681C05D0FFF7A2
:1015F00071F8801BA84207D835B120684069C04304
:101600004007ECD4002070BD002044F8300F2021AA
:101610006173A073216941F0200121612073E2E729
:101620002DE9F0471E4690460D460446C1F3074794
:10163000DDF8209008E0701C06D0FFF74BF8A0EB17
:101640000900B0420FD876B12068012F18D0806908
:1016500025EA00000004000C14D000214145EAD026
:101660000020BDE8F087002044F8300F202161738E
:10167000A073216941F02001216120730120F0E76E
:101680004069E5E70121E9E72DE9F0479A469146EF
:101690000E46044600254FF02008C1F3074725E019
:1016A00020684069C043400514D42068016841F4B3
:1016B0000071016021686FF480604861256384F8DF
:1016C0003D8084F83E50206C40F00400206484F893
:1016D0003C501FE0B9F1FF3F08D0FEF7FBFFA0EB45
:1016E0000A0149450CD8B9F1000F09D02068012F33
:1016F00013D0806926EA00000004000C0BD0CFE76D
:1017000044F8305F84F80D80A573206940F0200014
:10171000206125730120BDE8F0874069EAE72DE9E3
:10172000F041002590460E460446202717E0406908
:10173000C043C0060CD454F8301B6FF01000486151
:1017400044F810596777A577206A2062257717E05B
:10175000FEF7C0FFA0EB0800B04208D83EB12068F9
:101760004169C9434906E2D40020BDE8F08144F84C
:10177000305F6773A573206940F0200020612573F6
:101780000120F2E770B516460D4604460DE02046EE
:10179000FFF736FE08B1012070BD681C05D0FEF7CA
:1017A00099FF801BA84207D835B120684069C04323
:1017B0000006ECD4002070BD002044F8300F20213A
:1017C0006173A073216941F0200121612073E2E778
:1017D0000D4808B5816941F020018161816901F0FE
:1017E00020010091816941F004018161816901F06A
:1017F00004010091816941F008018161806900F074
:101800000800009008BD0000001002400D4810B50F
:101810000B4901600C49416000214FF48042816016
:10182000C0E9031241618161C1610162FEF758FFA5
:10183000002803D0BDE81040FEF73CBE10BD0000FC
:101840000054004040000020A08601000C4810B564
:101850000A4901604FF4E1314160002181600C22AE
:10186000C160C0E904128161C161FFF705FD002874
:1018700003D0BDE81040FEF71DBE10BD003801408A
:1018800094000020FEE7FEE770477047FFF7DAB9E3
:1018900030B58FB028216846FEF77FFC14210AA8D6
:1018A000FEF77BFC01210804CDE90010002402941E
:1018B00002250491CDE907504FF4E01009906846E5
:1018C000FFF736FB08B172B6FEE70F20CDE90A0537
:1018D0004FF48060CDE90C4002210AA80E94FFF776
:1018E0003BFA002801D072B6FEE70FB030BD70475A
:1018F00070B5044600680169E26821F44051114363
:1019000001612169A0680843616908432168CA68C8
:1019100041F20C639A430243CA6020684169A2699C
:1019200021F44071114341611E492068884202D16F
:10193000FFF7B8FA01E0FFF7A5FA00EBC00101EBF1
:101940000012606864218000B2FBF0F3B3FBF1F396
:101950006FF018067343B2FBF0F5B2FBF0F605EB3F
:101960008305322303EB0515B5FBF1F5B6FBF1F664
:1019700005F0F00505EB0615B2FBF0F6B2FBF0F052
:10198000B0FBF1F06FF01802504306EB800003EB60
:101990000010B0FBF1F0216800F00F0028448860CF
:1019A00070BD0000003801402DE9F041984617460F
:1019B0000E460446069D1DE0681C1BD02DB1FEF7A7
:1019C00089FEA0EB0800A84214D92068C16821F460
:1019D000D071C1602068416921F00101416120207E
:1019E00084F8390084F83A00002084F83800032095
:1019F000BDE8F0812068006836EA000004D00020CD
:101A0000B842D9D00020F3E70120F9E7FEE7000053
:101A10000FB4054B10B503A9044A029800F028F84A
:101A200010BC5DF814FB0000912200081800002093
:101A30000907090E002804DB00F1E02080F80014FB
:101A4000704700F00F0000F1E02080F8141D70478F
:101A500002E008C8121F08C1002AFAD17047704777
:101A6000002001E001C1121F002AFBD170470000D5
:101A70002DE9FF4F8BB088460546002606E0252855
:101A80000BD0DDE90D1290476D1C761C28780028DC
:101A9000F5D10FB03046BDE8F08F0024A146A24634
:101AA0000122AE4900E0044315F8013F203B02FA51
:101AB00003F00842F7D128782A2810D06FF02F02BF
:101AC0002878A0F13001092915D809EB890102EB2A
:101AD000410144F0020400EB01096D1CF0E758F8E5
:101AE000041B5FEA010903D544F40054C9F100095D
:101AF00044F002046D1C28782E2817D115F8010F28
:101B000044F004042A280ED06FF02F022878A0F1A8
:101B1000300109290AD80AEB8A0102EB410100EBE6
:101B2000010A6D1CF2E758F804AB6D1C28786C288C
:101B30000FD006DC4C2817D068280DD06A2814D1A5
:101B400004E0742810D07A280FD10DE044F400147A
:101B50000AE044F4801401E044F4401469788142BE
:101B600002D104F580146D1C6D1C2878692865D09D
:101B700006DC00288DD0632827D0642806D15DE0DC
:101B80006E2808D073282AD0752877D0DDE90D1289
:101B90009047761CE0E0C4F30250022809D00328E5
:101BA0000DD0D8F8001004280DD00E6008F10408FC
:101BB000D2E0D8F80010F217C1E90062F6E7D8F8D1
:101BC00000100E80F2E70E70F0E718F8041B8DF895
:101BD000001000208DF80100EB46012003E058F8CA
:101BE00004BB4FF0FF3061074FF0000701D40AE05B
:101BF0007F1C57450DDA8742FADB1BF807100029D6
:101C0000F6D106E07F1C8742FCDB1BF80710002999
:101C1000F8D1DDE90D23A9EB07008146214600F04C
:101C2000B1F83044C61904E0DDE90D121BF8010BD0
:101C300090477F1EF8D22146484688E058F8040BAA
:101C4000C4F302514FF00A0B032900D100B204295A
:101C500000D140B2002802DA40422D2102E02105E5
:101C600005D52B218DF82410012104E006E0E107C1
:101C700010D02021F6E708AF089113E058F8040BC4
:101C8000C4F302514FF00A0B032900D180B204299A
:101C900000D1C0B20021EEE75946FEF718FB303103
:101CA00007F8011D0028F7D1ADEB070000F1200B6C
:101CB000600702D524F4803401E04FF0010ADA45D0
:101CC00002DDAAEB0B0000E00020824600EB0B01D6
:101CD00008980144A9EB01000A90E00306D4DDE96D
:101CE0000D2321460A9800F04DF806444FF00009F4
:101CF00008E009A911F80900DDE90D12904709F182
:101D00000109761C08998945F3DBE0030CD5DDE970
:101D10000D2321460A9800F035F8064404E0DDE979
:101D20000D1230209047761CBAF10001AAF1010A89
:101D3000F5DC05E0DDE90D1217F8010B9047761C84
:101D4000BBF10001ABF1010BF4DC0A982146DDE99F
:101D50000D2300F005F806446D1C97E609280100E4
:101D60002DE9F041044600251E461746880404D498
:101D700005E039462020B0476D1C641EF9D5284681
:101D8000BDE8F0812DE9F041044600251E4690464D
:101D9000C80301D5302700E02027880404D505E0DA
:101DA00041463846B0476D1C641EF9D52846BDE84B
:101DB000F081FEB505460020019002908DF80000EC
:101DC0004FF0FF36684600F033F804469DF80000F7
:101DD00020B1002000F052F9204444B224B901A8F7
:101DE00000F006F9040002D034462046FEBDBDF9DD
:101DF0000400FEF726FA6FF003063246FEF70AFAF1
:101E0000FEF749FA2860BDF90800FEF71AFA3246D3
:101E1000FEF700FAFEF73FFAA860BDF90600FEF7EC
:101E200010FA3246FEF7F6F9FEF735FA6860DCE79D
:101E3000F8B50646114C00208DF8000020684FF0E0
:101E4000FF3548B1007950B1002000F0E3F930B11E
:101E50002068007918B10FE06FF07E00F8BD2168AE
:101E600001236A46487A0C693B21A04705469DF844
:101E70000000C0F3800030702846F8BD0400002048
:101E8000F8B50646114C00208DF8000020684FF090
:101E9000FF3548B1007950B1002000F0BBF930B1F6
:101EA0002068007918B10FE06FF07E00F8BD21685E
:101EB00001236A46487A0C693521A04705469DF8FA
:101EC0000000C0F3011030702846F8BD0400002067
:101ED000F8B50646114C00208DF8000020684FF040
:101EE000FF3548B1007950B1002000F093F930B1CE
:101EF0002068007918B10FE06FF07E00F8BD21680E
:101F000001236A46487A0C693D21A04705469DF8A1
:101F1000000000F00F0030702846F8BD04000020DB
:101F2000FEB50021314C8DF800108DF8081001919C
:101F3000014620600123CD68407A02AA0721A84704
:101F4000216805460123487A0E696A460021B04798
:101F5000216805449DF800000870487A01230E6945
:101F60006A461946B047216805449DF8000048714B
:101F7000487A01230E696A460221B0472168054468
:101F80009DF800008871487A01230E696A46032192
:101F9000B047216805449DF80000C871487A0123C4
:101FA0000E696A460621B047216805449DF8000085
:101FB0000872487A02230E6901AA0421B047054439
:101FC0009DF804008DF804002168BDF80400012389
:101FD0004880487A0E696A460721B047226828443B
:101FE0009DF8001040B21171FEBD000004000020F9
:101FF0007CB506460020204C0090019020684FF0F0
:10200000FF3548B1007950B1002000F003F930B13C
:102010002068007918B12CE06FF07E007CBD20684C
:1020200006236A46457A04691A212846A0470546D0
:102030009DF800008DF800009DF801108DF801104A
:1020400040EA012030809DF802008DF802009DF8E2
:1020500003108DF8031040EA012070809DF8040001
:102060008DF804009DF805108DF8051040EA012058
:10207000B08028467CBD0000040000202DE9FC4112
:10208000064600201C4D8DF800008DF804002868DD
:102090004FF0FF3420B101A8FFF71AFF20B122E072
:1020A0006FF07E00BDE8FC819DF8040018B10020AF
:1020B00000F024F8B8B9286801236A46477A046911
:1020C0003B213846A04704000DD19DF800000123B4
:1020D00066F382008DF8000029686A46487ACC6869
:1020E0003B21A04744B29DF8040018B100F006F867
:1020F000204444B22046D5E7040000202DE9FC41ED
:1021000006460020284C8DF800008DF80400206859
:102110004FF0FF3520B101A8FFF7DAFE20B140E013
:102120006FF07E00BDE8FC819DF804004FF4167747
:1021300048B1216801236A46487A0D693D21A847C4
:1021400005001CD02BE0216801236A46487A0D69FE
:102150003D21A847050024D19DF80000012366F326
:1021600003008DF8000021686A46487ACD683D2159
:10217000A84745B2206841693846884711E09DF874
:102180000000012220F00F008DF8000069463D207C
:1021900000F06AF805462068416914208847002E3F
:1021A000D1D12846BEE7000004000020F8B506465D
:1021B000174D00208DF8000028684FF0FF3448B11B
:1021C000007950B1002000F025F830B1286800797E
:1021D00018B11AE06FF07E00F8BD286801236A4646
:1021E000477A04693F213846A04704000DD19DF885
:1021F0000000012366F345108DF8000029686A4647
:10220000487ACC683F21A04704462046F8BD00002C
:1022100004000020F8B50546124C00208DF800009F
:1022200020684FF0FF3650B1477A0123D0F810C034
:102230006A4607213846E04720B13046F8BD6FF0C6
:102240007E00F8BD8DF80050216801236A46487A67
:10225000CE680721B04740B20028F2D121680D7145
:10226000F8BD000004000020F0B4064607480068EE
:1022700040B1457A1346C4680A4631462846A4460A
:10228000F0BC6047F0BC6FF07E0070470400002097
:1022900013B54FF6FF73012269460248FFF756F85F
:1022A00000981CBD940000200EB5FEF7D3FCFFF78C
:1022B000EFFAFFF78DFAFFF7A9FAFFF7C7FA4448DC
:1022C00042494FF42F74C160424901614249416162
:1022D000292141722046FEF7EFF83D48FFF720FE26
:1022E0000120FFF763FF2046FEF7E6F83848FFF7C6
:1022F00017FE3AA0FFF78CFB0820FFF7FFFE3D4CCE
:102300004FF47A753B48FFF7BBFD2078032806D0D1
:1023100039A0FFF77DFB2846FEF7CEF8F2E73EA096
:10232000FFF776FB44A0FFF773FBDFF8A4B0DFF8FC
:1023300014910BF1180B26481830FFF73AFDDBF823
:1023400004505F4649462846FDF732FFFDF78AFFF5
:10235000642490FBF4F104FB11062846FDF782FF8C
:10236000D7F80880824649464046FDF721FFFDF731
:1023700079FF90FBF4F104FB11054046FDF772FF75
:102380003F68804649463846FDF712FFFDF76AFF71
:1023900090FBF4F104FB11043846FDF763FF01469E
:1023A000002E00DA7642002D00DA6D42CDE9005AA7
:1023B0000296002C00DA64422246434622A0FFF730
:1023C00027FB0A20FEF778F8B5E700008D04000827
:1023D0001C00002069040008B9040008424E4F3078
:1023E000353520696E697420737563636573732E68
:1023F0000A00000000000020424E4F3035352073A7
:1024000074696C6C2069732063616C6962726174B9
:10241000696E672E2E2E0A00424E4F3035352069E8
:10242000732066756C6C792063616C69627261748B
:1024300065642E0A000000004D43552073746172DC
:10244000742E0A000000C8427961773A202533646F
:102450002E252D32642020202070697463683A2074
:102460002533642E252D326420202020726F6C6C61
:102470003A202533642E252D32640A000000000026
:102480000000000001020304060708090000000024
:1024900001020304B4240008000000201C00000016
:1024A000501A0008D02400081C000020BC040000C2
:1024B000601A000800000000000000000100000099
:1024C00010000000000000000024F40000000000E4
:0400000508000131BD
:00000001FF
